:020000040800F2
:10000000F8080020A9010008AD0E0008AF0E000896
:10001000B30E0008B70E0008BB0E00080000000079
:10002000000000000000000000000000BF0E0008FB
:10003000C10E000800000000C30E0008C50E000835
:10004000C3010008C3010008C30100085F0F0008D6
:10005000C3010008C3010008C3010008C301000870
:10006000C3010008C3010008C3010008C301000860
:10007000C3010008C3010008C3010008C301000850
:10008000C3010008C3010008C70F0008C30100082E
:10009000C3010008C3010008C3010008C301000830
:1000A000C3010008C3010008C3010008C301000820
:1000B000C3010008D10E0008C3010008C3010008F5
:1000C000C3010008C3010008C3010008C301000800
:1000D000C3010008C30100088F0F0008C301000816
:1000E000C3010008C3010008C301000800F002F8C2
:1000F00000F04AF80AA090E8000C82448344AAF178
:100100000107DA4501D100F03FF8AFF2090EBAE875
:100110000F0013F0010F18BFFB1A43F0010318473B
:10012000E874000008750000103A24BF78C878C150
:10013000FAD8520724BF30C830C144BF04680C60ED
:10014000704700000023002400250026103A28BF35
:1001500078C1FBD8520728BF30C148BF0B60704739
:10016000662906F01481642904F04C810020704750
:100170001FB504F0A3FC04000020002105F0E2F903
:10018000E0601FBD10B510BD04F092FD1146FFF7F1
:10019000EFFF00F00CFE04F0B0FD03B4FFF7F2FF38
:1001A00003BC04F0F1FD00000948804709480047FE
:1001B000FEE7FEE7FEE7FEE7FEE7FEE7FEE7FEE717
:1001C000FEE7FEE704480549054A064B7047000074
:1001D000C7020008ED000008F8020020F80800201F
:1001E000F8040020F80400200CB5002001900090D5
:1001F0006C48006840F480306A49086000BF694874
:10020000006800F4003000900198401C01900098B4
:1002100018B90198B0F5A06FF1D16248006800F4F8
:10022000003010B10120009001E000200090009803
:10023000012843D15C48006840F010005A4908602A
:100240000846006820F0030008600846006840F097
:1002500002000860534840685249486008464068B8
:1002600048600846406840F480604860084640683E
:1002700020F47C1048600846406840F4E81048606C
:100280000846006840F08070086000BF454800687C
:1002900000F000700028F9D04248406820F00300C8
:1002A000404948600846406840F00200486000BF8E
:1002B0003C48406800F00C000828F9D10CBD10B58E
:1002C000FFF792FF10BD10B53648006840F00100FE
:1002D000344908600846406834490840314948605C
:1002E00008460068324908402E4908600846006800
:1002F00020F4802008600846406820F4FE00486032
:100300004FF41F008860FFF7DAFF4FF000602949C3
:10031000086010BD10B5002100200022214B5B6851
:1003200003F00C0121B1042906D0082928D107E0E7
:10033000214B224C236027E01F4B204C236023E0FD
:10034000184B5B6803F47010164B5B6803F4803243
:10035000022303EB904022B9194B4343174C23600F
:100360000DE0104B5B6803F4003323B1144B43439F
:10037000124C236003E0104B4343104C236003E016
:100380000D4B0E4C236000BF00BF064B5B68C3F3F0
:1003900003130C4CE15C094B1B68CB40074C2360FA
:1003A00010BD000000100240002002400000FFF8D5
:1003B000FFFFF6FE08ED00E000127A0000000020CA
:1003C00000093D0004000020FC49086000BFFB4913
:1003D00009680029FBD170472DE9F047F849096801
:1003E000A1F57A7101EB8101080105F020FB0646B9
:1003F0000022F44B05F096F904460022F24B05F07A
:10040000E9F8804605F0E6FAF0490870F04800681F
:1004100005F064FEC1B2EF4800781438814203DD74
:100420000120ED49087002E00020EB490870E74820
:100430000078EA490978884203DD0120E84908701C
:1004400002E00020E6490870E6480278E4480178B6
:10045000E148007803F0FAFEBDE8F08770B5044685
:10046000DC480078A0F11402DFA1E54803F08EFF1C
:10047000E349302003F02EF9D8480278E1A1E048A2
:1004800003F084FFDE49602003F024F9E34802789A
:10049000E3A1DB4803F07AFFD949902003F01AF971
:1004A000E548006805F0BEFC05462A460B46E3A178
:1004B000D34803F06BFFD249C02003F00BF9E548A5
:1004C00000782044E349087008460078052801D1E7
:1004D000012008704FF4FC6003F073F8DD480078E9
:1004E000012806D0022811D003281AD0042833D1BD
:1004F00022E0B8480078A0F11402BBA1C04803F084
:1005000045FFBF49302003F0E5F825E0B348027805
:10051000BCA1BB4803F03AFFB949602003F0DAF808
:100520001AE0BE480278BEA1B54803F02FFFB449D7
:10053000902003F0CFF80FE0BF48006805F072FC90
:1005400005462A460B46BDA1AD4803F01FFFAC4946
:10055000C02003F0BFF800BF00BF002003F031F857
:1005600070BD2DE9F041BB480078012806D0022873
:1005700015D0032827D0042872D138E09548007898
:1005800020B194480078401E924908709148017843
:10059000F12003F075FC0320FFF716FF60E08F48A1
:1005A0000078401F8D490870084600780A2801DA53
:1005B0000A20087089480178F22003F061FC0320CA
:1005C000FFF702FF4CE095480078401E9349087001
:1005D00008460078012801DA012008708F48017868
:1005E000F32003F04DFC0320FFF7EEFE38E09248C5
:1005F000006805F017FC06460022974B05F028FB23
:10060000044604F0B5FF8C4908604FF07E518A48DB
:10061000006805F097FD03D24FF07E5086490860D0
:100620008548006805F05AFDC4B22146F42003F065
:1006300027FC81480168894805F08EFC06464FF08A
:100640007E5105F02FFE054605F048FD84B2214697
:100650004FF0804002F0BCFB0320FFF7B5FE00BF67
:1006600000BF0020FFF7FAFEFFF7B6FEBDE8F081FD
:100670002DE9F04177480078012806D0022818D0EB
:1006800003282AD0042873D13BE052480078401C4C
:100690005049087008460078502801DD5020087045
:1006A0004C480178F12003F0EBFB0320FFF78CFEB0
:1006B0005EE04A480078401D4849087008460078C6
:1006C0005A2801DD5A20087044480178F22003F0CE
:1006D000D7FB0320FFF778FE4AE050480078401C23
:1006E0004E49087008460078052801DD052008708D
:1006F0004A480178F32003F0C3FB0320FFF764FEB0
:1007000036E04D48006805F08DFB06460022524B4E
:1007100004F060FF044604F02BFF4749086050498D
:100720004548006805F08DFD02D24D4842490860F9
:100730004148006805F0D2FCC4B22146F42003F021
:100740009FFB3D480168454805F006FC06464FF012
:100750007E5105F0A7FD054605F0C0FC84B2214698
:100760004FF0804002F034FB0320FFF72DFE00BF66
:1007700000BF0020FFF772FEFFF72EFEBDE8F081FC
:100780002DE9F04105460C469046284605F04AFB07
:10079000064632460B4633A1194803F0F7FD1849C7
:1007A000302002F097FF224634A1154803F0EEFDF9
:1007B0001349602002F08EFF42466BE014000020D7
:1007C000540000200094C140000024402C00002070
:1007D000280000201C000020340000201D00002004
:1007E000350000203600002020202020206D617878
:1007F0002074656D203A2025642020200000000030
:100800007800002020202020206D61782068756D00
:10081000203A202564202020000000001E00002037
:1008200020202073616D706C652020203A202025E7
:100830006453202000000000200000202074657315
:100840007420736967203A20252E31664B487A2040
:1008500000000000240000200000E03F00007A4477
:10086000000020412063757272656E742074656D9E
:100870003A252E3066274320200000002020637593
:100880007272656E742068756D203A202564252586
:1008900020000000F3A1F94803F078FDF749C020DB
:1008A00002F018FFBDE8F08110B503F086FCF449B2
:1008B000087008460078312806D032282DD0332819
:1008C00040D0342864D150E0EE48007808B90120C7
:1008D00000E00020EB4908700846007818B10020BD
:1008E000FFF7BCFD0BE003F092FAE7490860E74828
:1008F0000268E7480178E7480068FFF741FF0A20EF
:10090000FFF762FD00BF0121E34801F04AF800282B
:10091000F9D00A20FFF758FD3AE0DA48007810B124
:100920000120FFF79BFD0A20FFF74EFD00BF4FF4AB
:100930008071D94801F035F80028F8D00A20FFF777
:1009400043FD25E0CF48007808B1FFF791FE0A206B
:10095000FFF73AFD00BF0221D04801F022F800283D
:10096000F9D00A20FFF730FD12E0C648007808B140
:10097000FFF7F7FD0A20FFF727FD00BF0421C74856
:1009800001F00FF80028F9D00A20FFF71DFD00BF85
:1009900000BF0020BA49087010BD10B5BA48006801
:1009A000BF49097808443C21B0FBF1F201FB120475
:1009B00003F02DFA84424FD103F029FAB2490860BE
:1009C000B2480068401CB149086008460268B04857
:1009D0000178B0480068FFF7D3FEB248007808B944
:1009E000012000E00020AF49087008460278AE48B8
:1009F0000178AE48007803F029FCA6480168AC48AD
:100A0000AC4A127840F82210A1480178AA48A94AB5
:100A10001278815403F00CFAA849A64A1278885437
:100A200003F010FAA649A34A1278885403F0EFF9AC
:100A3000C1B2A4489F4A127881549E480078401C55
:100A40009C490870084600783C2805D101209E4941
:100A5000087000209749087010BD2DE9F05F03F081
:100A6000A4F89A4908600846006805F0DBF980465A
:100A70004FF06632964B04F055FE06460022954B29
:100A800004F0E8FF04460022934B05F0E1F88246AB
:100A900004F06EFD7F49086090490968A1F57A71FC
:100AA00001EB8101080104F0C2FF804600228C4B5B
:100AB00004F038FE064600228A4B04F08BFD044603
:100AC00004F088FF7249087070480268084601788F
:100AD00070480068FFF754FEBDE8F09FF0B587B09E
:100AE0008148007801281BD103F091F9054603F0F5
:100AF000A9F9064603F09CF90746CDE90165009087
:100B00007A480078A0F114027948037879A15B480B
:100B100003F03CFC594803F020FC002072490870A7
:100B200081480078012832D167480078012803D134
:100B30003C207E49087003E05E4800787B490870DD
:100B400000241DE05A4951F8240005F06BF90546D0
:100B50000E465C48005D5A49095D584A125D564B85
:100B60001B5DCDE90056CDE90232CDE904102246E5
:100B70006FA1424803F00AFC404803F0EEFB641CFE
:100B80006A4800788442DDDB00206749087007B0BE
:100B9000F0BD70B5FF2003F08AF9662836D1F12048
:100BA00003F085F9514908700320FFF70DFCF2208E
:100BB00003F07DF94E4908700320FFF705FCF32090
:100BC00003F075F9364908700320FFF7FDFBF420A8
:100BD00003F06DF9044605F0A1FA624908600320AC
:100BE000FFF7F2FB5F4801685F4805F0B5F906467C
:100BF0004FF07E5105F056FB054605F06FFA84B2C2
:100C000021464FF0804002F0E3F82AE037480178AF
:100C1000F12003F035F90320FFF7D6FB34480178C3
:100C2000F22003F02DF90320FFF7CEFB1C480178DA
:100C3000F32003F025F90320FFF7C6FB49480068BD
:100C400005F04CFAC4B22146F42003F019F9032050
:100C5000FFF7BAFB6621FF2003F012F90320FFF72C
:100C6000B3FB70BD207265636F72642074696D653B
:100C7000733A202564202020200000007800002006
:100C800040000020410000203C00002030000020F7
:100C90002C0000202800002000080140000C01402A
:100CA0001E00002036000020350000203400002007
:100CB000B400002042000020A4010020E001002038
:100CC0001C020020580200204300002038000020B1
:100CD00066660A4000005440000034405400002082
:100CE0000094C14000002440580000201C00002057
:100CF0001D00002074656D5F6D61783A25642020C9
:100D000068756D5F6D61783A2564207265616C204D
:100D100074696D653A253032642D253032642D2595
:100D2000303264200D0A00005900002044000020E9
:100D300025642E2074656D3A252E30662020687556
:100D40006D3A2564207265636F72642074696D6505
:100D50003A253032642D253032642D25303264201E
:100D60000D0A00002000002000007A4470B502F057
:100D70000FFC02F0D9FE3E4801683E4805F0ECF851
:100D8000054605F0ABF984B22121204602F034FF7C
:100D90004FF6FF7002F07AFF02F0CEFF03F0DCF9AD
:100DA00003F0F0F903F02AFA03F08AFA70BD4FF469
:100DB000A06000F0B1FE304800684FF47A72B0FBDA
:100DC000F2F1481EB0F1807F00D31BE0481E4FF0C7
:100DD000E022506150170F22002807DA13071D0E7A
:100DE000264B00F00F04241F1D5503E013071C0EB3
:100DF000234B1C5400BF00204FF0E02290610720DD
:100E0000106100BFFFF7B2FF4FF6FF7002F07FFCEA
:100E1000002002F0D6FB4FF6FF7002F0D8FB19A1BC
:100E20001E4803F0B3FA1D49002002F053FC02F003
:100E3000EEFF1B49086002F0BFFFFFF7AAFE15E0B6
:100E4000FFF74CFE1748007870B917480068012872
:100E500004D100201449086002F0AEFFFFF7FDFD49
:100E6000FFF7BAFAFFF799FDFFF71EFDE8E700006C
:100E70002000002000007A440000002018ED00E06F
:100E800000E400E02020202020207265616C2064B6
:100E900061746120202020200000000078000020E4
:100EA0003C0000204100002018000020704700BFD7
:100EB000FEE700BFFEE700BFFEE700BFFEE77047AA
:100EC0007047704743480068401E424908607047B9
:100ED00010B50421404801F0AEFF01283ED10421A5
:100EE0003D4801F0B9FF3D48008840B93A4801F05B
:100EF00086FF3B4908800120384908802EE03748AA
:100F0000008801282AD1344801F079FF354908804A
:100F10000846008832490988884207DD3148008840
:100F20002F490988401A3049086009E02C48008898
:100F30004FF6FF71081A2B49098808442A490860AE
:100F40002A4800684821B0FBF1F027490968B0FB46
:100F5000F1F02749086000202049088010BD10B535
:100F6000012002F0CFF888B1012002F0DBF802F096
:100F70009BF801201F49086002F05AF81E49884278
:100F800004D1002002F05DF802F08EF810BD10B51B
:100F9000002440F22551194800F0FAF990B140F2CE
:100FA0002551164800F01EFA144800F071F9C4B239
:100FB000432C02D1012012490870542C02D1012087
:100FC0001049087010BD10B50F4800F039FF0F49E7
:100FD000088010BD14000020000400404C000020D8
:100FE000480000204A00002050000020000000209F
:100FF00054000020180000208051010000440040EF
:101000005800002059000020002801405A0000200C
:1010100010B50446FB48844209D10121880300F041
:1010200083FB00214FF4804000F07EFB32E0F64865
:10103000844209D10121480400F083FB00214FF4D0
:10104000003000F07EFB25E0F048844209D1012108
:10105000880400F076FB00214FF4802000F071FB43
:1010600018E0EB48844209D10121C80400F069FB73
:1010700000214FF4002000F064FB0BE0E5488442BF
:1010800008D10121080500F05CFB00214FF480101D
:1010900000F057FB10BD2DE9F04786B005460E461F
:1010A0000024A24600BFA1460027B08900B100BFBE
:1010B0002F462C8A4CF6FF700440F08804432C82A3
:1010C000AC894EF6F3100440B08831890843718929
:1010D00008430443AC81AC8A4FF6FF400440B0891A
:1010E0000443AC8201A800F098FAC648874202D1B6
:1010F000DDF810A001E0DDF80CA0A88900F40040A4
:1011000040B10AEBCA0000EB0A1031684900B0FB9D
:10111000F1F807E00AEBCA0000EB0A103168890019
:10112000B0FBF1F86420B8FBF0F004012009642161
:1011300001FB1089A88900F4004040B1322000EB87
:10114000C900B0FBF1F000F00700044308E03220D2
:1011500000EB09106421B0FBF1F000F00F00044334
:101160002C8106B0BDE8F0874FF4165101600021D4
:101170008180C18001810C214181002181817047E2
:1011800010B502460020108A4FF2FF0318400B886A
:101190004C8823438C882343CC88234318431082F4
:1011A00010BD0021018041808180C180704721B144
:1011B000828942F40052828104E082894DF6FF73F5
:1011C0001A4082817047F0B50346002400260025AE
:1011D000002040F66A17B94200D100BF1846C1F39B
:1011E000421401F01F06012707FA06F5012C01D170
:1011F0000C3004E0022C01D1103000E014301AB1A0
:1012000007682F43076002E00768AF430760F0BD3F
:101210001AB1838A0B43838202E0838A8B438382E1
:101220007047028A4FF6F0731A400282028A0A431C
:101230000282704782894FF2FF731A40828182894D
:101240000A438281704721B1828942F00202828181
:1012500004E082894FF6FD731A4082817047028A4A
:101260004FF6DF731A400282028A0A4302827047F5
:1012700021B1028A42F48042028204E0028A4BF6E3
:10128000FF731A4002827047C1F3080282807047E0
:1012900001468888C0F308007047818941F0010148
:1012A00081817047028BD2B20283028B42EA012213
:1012B00002837047028B02F47F420283028B0A434F
:1012C0000283704721B1828A42F02002828204E0C8
:1012D000828A4FF6DF731A408282704721B1828A78
:1012E00042F01002828204E0828A4FF6EF731A40C5
:1012F0008282704721B1828A42F00802828204E031
:10130000828A4FF6F7731A408282704721B1828930
:1013100042F40042828103E08289C2F30E0282819C
:10132000704721B1828A42F40062828204E0828A9C
:101330004FF2FF731A4082827047828A4FF6FB7326
:101340001A408282828A0A438282704721B1828A4D
:1013500042F00202828204E0828A4FF6FD731A4054
:101360008282704702460020B1F5007F00D100BFA5
:1013700013880B400BB1012000E00020704701F4FE
:101380000072B2F5007F00D100BFCA4302807047EF
:1013900070B50246002400230025002040F66A169E
:1013A000B14200D100BFC1F3421501F01F03012675
:1013B00006FA03F3012D02D19689334006E0022D8F
:1013C00002D1168A334001E0968A33400C1201267E
:1013D00006FA04F41688344013B10CB1012000E081
:1013E000002070BD10B50022002340F66A14A1420F
:1013F00000D100BF0A1201249440A3B2DC43048050
:1014000010BD00000038014000440040004800408A
:10141000004C004000500040DF48006840F00100F0
:10142000DD49086008464068DC490840DA49486000
:1014300008460068DA490840D7490860084600684D
:1014400020F4802008600846406820F4FE004860D0
:101450004FF41F0088607047CF49096821F480313C
:10146000CD4A11601146096821F480211160B0F560
:10147000803F03D0B0F5802F0ED106E0C649096841
:1014800041F48031C44A116007E0C349096841F45E
:10149000A021C14A116000E000BF00BF704710B535
:1014A00001460022002300204A11012A02D1BA4C31
:1014B000236806E0022A02D1B74C236A01E0B64C49
:1014C000636A01F01F02012494401C400CB101200A
:1014D00000E0002010BD38B5002000900024002559
:1014E00000BF3120FFF7DBFF05460098401C00904D
:1014F0000098B0F5A06F01D0002DF2D03120FFF799
:10150000CEFF08B1012400E00024204638BD01468A
:101510000020A14A106820F0F80040EAC1001060E5
:101520007047A04908607047024600209A4B5868EF
:1015300020F47C1042EA01031843974B586070472F
:1015400098490866704701460020934A506820F089
:1015500003000843506070478F48406800F00C005B
:101560007047014600208C4A506820F0F000084384
:101570005060704701460020874A506820F4E060C0
:1015800008435060704701460020834A506820F4A9
:10159000605040EAC1005060704729B17E4A527ADB
:1015A00002437D4B5A7204E07B4A527A82437A4B63
:1015B0005A7270477B49D831086070470146002055
:1015C000754A506820F4404008435060704700213D
:1015D000714A20321170704A82F82010012802D01E
:1015E00004280AD104E001216B4A2032117005E081
:1015F0000521694A2032117000E000BF00BF70472A
:101600006949086070476449096A0143624A116286
:101610007047654944390860704730B500210022A1
:10162000002400235C4D6D6805F00C0121B10429F4
:1016300005D0082923D105E05C4D056022E05B4D13
:1016400005601FE0544D6D6805F47012524D6D68D1
:1016500005F48034022505EB92421CB9544D5543E4
:1016600005600BE04C4D6D6805F400351DB1504D23
:101670005543056002E04D4D5543056002E04B4D7A
:10168000056000BF00BF444D6D6805F0F001090919
:10169000484D6B5C0568DD4045603F4D6D6805F465
:1016A000E061090A434D6B5C4568DD4085603A4D59
:1016B0006D6805F46051C90A3E4D6B5C4568DD40BC
:1016C000C560354D6D6805F44041890B3A4D6B5C42
:1016D000C568B5FBF3F5056130BD29B12E4A5269E5
:1016E00002432D4B5A6104E02B4A526982432A4B34
:1016F0005A61704729B1284A92690243264B9A6180
:1017000004E0254A92698243234B9A61704729B1CC
:10171000214AD2690243204BDA6104E01E4AD269B1
:1017200082431D4BDA61704729B11B4AD2680243DC
:10173000194BDA6004E0184AD2688243164BDA602B
:10174000704729B1144A12690243134B1A6104E02D
:10175000114A12698243104B1A617047124940398D
:10176000086070470F49C86470470B49C8717047DB
:101770000948406A40F08070074948627047014656
:101780000020054A92680A400AB1012000E00020CA
:101790007047014988727047001002400000FFF84E
:1017A000FFFFF6FE000042428004424200127A002F
:1017B00000093D005C0000206C00002010B50446CC
:1017C000CC48844208D101210420FFF7ADFF00215D
:1017D0000420FFF7A9FF46E0C748844208D1012151
:1017E0000820FFF7A1FF00210820FFF79DFF3AE046
:1017F000C248844208D101211020FFF795FF002143
:101800001020FFF791FF2EE0BD48844208D101214E
:101810002020FFF789FF00212020FFF785FF22E02D
:10182000B848844208D101214020FFF77DFF002104
:101830004020FFF779FF16E0B348844208D1012128
:101840008020FFF771FF00218020FFF76DFF0AE085
:10185000AE48844207D101218015FFF765FF0021C2
:10186000A015FFF761FF10BD10B501210846FFF775
:101870005BFF00210120FFF757FF10BD2DE9F0416C
:10188000024600250026002000230024002791F8AE
:1018900003C00CF00F0591F803C00CF0100CBCF164
:1018A000000F03D091F802C04CEA050591F800C082
:1018B000BCF1000F31D0146800202BE04FF0010C78
:1018C0000CFA00F3B1F800C00CEA03069E4220D1E6
:1018D00083004FF00F0C0CFA03F7BC4305FA03FC2E
:1018E0004CEA040491F803C0BCF1280F06D14FF074
:1018F000010C0CFA00FCC2F814C00AE091F803C015
:10190000BCF1480F05D14FF0010C0CFA00FCC2F8F5
:1019100010C0401C0828D1D31460B1F800C0BCF13D
:10192000FF0F34DD546800202EE000F1080C4FF06A
:10193000010808FA0CF3B1F800C00CEA03069E4255
:1019400021D183004FF00F0C0CFA03F7BC4305FACA
:1019500003FC4CEA040491F803C0BCF1280F05D144
:1019600000F1080C08FA0CF8C2F8148091F803C0D2
:10197000BCF1480F07D100F1080C4FF0010808FA3C
:101980000CF8C2F81080401C0828CED35460BDE883
:10199000F0814FF6FF710180022181700421C17036
:1019A00070470246002093680B400BB1012000E015
:1019B000002070470146886880B2704702460020C8
:1019C000D3680B400BB1012000E0002070470146B6
:1019D000C86880B2704701617047416170470AB1C1
:1019E000016100E041617047C16070474FF480328F
:1019F0000A4382618161826182698269704702461D
:101A00000020434B18684FF68073184040EA0210DC
:101A100008433F4B186070473E49C8617047F0B5B6
:101A20000A46002300240021002500F00046B6F1FC
:101A3000004F02D1364EF16901E0354E7168C0F3B6
:101A4000034583B200F44016B6F5401F08D121F0DB
:101A500070612F4E766826F070662D4F7E6012E022
:101A600000F48016B6F5801F06D1032606FA05F4A9
:101A7000A14341F0706106E0460D360103FA06F617
:101A8000B14341F0706122B1460D360103FA06F60A
:101A9000314300F00046B6F1004F02D11C4EF16117
:101AA00001E01B4E7160F0BD30B500228B071C0FAA
:101AB0000F2303FA04F2164B08338C1053F824302A
:101AC0009343134C08348D1044F8253023468C1072
:101AD00053F824308C07240F00FA04F423430C4CF1
:101AE00008348D1044F8253030BD0A49DC310860D7
:101AF0007047000000080140000C01400010014048
:101B00000014014000180140001C01400020014069
:101B1000000001400000204231490143314A116078
:101B2000704770B5002100230F22C47804B32D4CF8
:101B3000246804F4E064C4F5E064210AC1F10403FC
:101B4000CA40447804FA03F184781440214309011F
:101B5000254C0678A155047804F01F050124AC40FB
:101B600005786D11AD0005F1E025C5F8004109E0EB
:101B7000047804F01F050124AC401C4D0678761152
:101B800045F8264070BD1A4A0A400243154B1B1FF8
:101B90001A60704739B1134A121D12680243114B83
:101BA0001B1D1A6006E00F4A121D126882430D4B7E
:101BB0001B1D1A607047042808D14FF0E021096905
:101BC00041F004014FF0E022116107E04FF0E02105
:101BD000096921F004014FF0E02211617047000013
:101BE0000000FA050CED00E000E400E080E100E018
:101BF00080FFFF1F10B50446FA48844208D1012136
:101C00004015FFF791FD00216015FFF78DFD17E0EE
:101C1000F548844208D101210015FFF785FD002118
:101C20002015FFF781FD0BE0F048844208D1012127
:101C3000C803FFF779FD00214FF40040FFF774FD62
:101C400010BD30B50246002000235068E84C20400B
:101C50000D790C6844EA0524204350609068E54CF7
:101C60002040D1E902542C434D7944EA45042043F5
:101C70009060D06A20F470000C7C641EE4B22343B0
:101C800040EA0350D06230BD002101600171417112
:101C90008160C16001210174704721B1826842F006
:101CA0000102826003E0826822F0010282607047D4
:101CB00021B1826842F48072826003E0826822F47B
:101CC00080728260704710B50023CBB21AB14468AD
:101CD0001C43446002E044689C43446010BD81683A
:101CE00041F0080181607047014600208A6802F0D7
:101CF00008020AB1012000E000207047816841F02D
:101D0000040181607047014600208A6802F00402E5
:101D10000AB1012000E00020704721B1826842F43E
:101D2000A002826003E0826822F4A0028260704711
:101D3000014600208A6802F480020AB1012000E016
:101D40000020704710B50A4600210023416821F4A5
:101D50006041531E41EA4331416010BD21B14268E8
:101D600042F40062426003E0426822F40062426092
:101D70007047F0B504460D4600200021092D11DD05
:101D8000E068A5F10A0606EB4607072606FA07F102
:101D90008843A5F10A0606EB460603FA06F1084356
:101DA000E0600CE0206905EB4507072606FA07F11D
:101DB000884305EB450603FA06F108432061072A2C
:101DC0000FDA606B561E06EB86071F2606FA07F130
:101DD0008843561E06EB860605FA06F10843606343
:101DE00022E00D2A0FDA206BD61F06EB86071F268E
:101DF00006FA07F18843D61F06EB860605FA06F1B8
:101E00000843206310E0E06AA2F10D0606EB8607A6
:101E10001F2606FA07F18843A2F10D0606EB860697
:101E200005FA06F10843E062F0BD21B1826842F490
:101E30008012826003E0826822F480128260704720
:101E40000146C86C80B2704766484C3000687047E5
:101E500021B1426842F48062426003E0426822F4A9
:101E600080624260704721B1426842F48052426011
:101E700003E0426822F48052426070470A46002123
:101E8000816821F4E04111438160704721B182688B
:101E900042F40042826003E0826822F400428260E1
:101EA000704721B1826842F40212826003E08268C6
:101EB00022F4021282607047014600208A6802F410
:101EC00000120AB1012000E000207047F0B504467E
:101ED0001546002000220026092911DDE068A1F145
:101EE0000A0707EB470C072707FA0CF29043A1F10A
:101EF0000A0707EB470703FA07F21043E0600CE01C
:101F0000206901EB410C072707FA0CF2904301EB23
:101F1000410703FA07F210432061A06BC0F301569A
:101F2000EF1C06F1010CA7EB0C0707EB870C1F2732
:101F300007FA0CF29043EF1C06F1010CA7EB0C071B
:101F400007EB870701FA07F21043A063F0BD10B555
:101F50000A4600210023816B21F44011531E41EAFF
:101F60000351816310BD08B5002300930090009BCE
:101F70000B440093009B1A6008BD08B50246002080
:101F80000090009201F12800009B184400900098F6
:101F9000006880B208BD0A4600214168164B19400E
:101FA0001143416070474162826270470A460021D6
:101FB000416821F01F0111434160704740B1094958
:101FC0000831096841F40001064A0832116007E04F
:101FD00004490831096821F40001024A08321160FD
:101FE000704700000024014000280140003C0140EF
:101FF000FFFEF0FFFDF7F1FFFFFD3FFF024600206F
:1020000013680B400BB1012000E000207047CA4369
:102010000260704770B502460020002300240B12B6
:102020005568CEB205EA060415681D4015B10CB11D
:10203000012000E0002070BD00220A12D34303609B
:102040007047000010B50446FE48844208D10121C3
:10205000C014FFF769FB0021E014FFF765FBC4E043
:10206000B4F1804F08D101210846FFF76AFB002137
:102070000120FFF766FBB8E0F348844208D1012154
:102080000220FFF75EFB00210220FFF75AFBACE0C5
:10209000EE48844208D101210420FFF752FB0021C1
:1020A0000420FFF74EFBA0E0E948844208D101215B
:1020B0000820FFF746FB00210820FFF742FB94E0D1
:1020C000E448844208D101211020FFF73AFB0021A7
:1020D0001020FFF736FB88E0DF48844208D1012159
:1020E0002020FFF72EFB00212020FFF72AFB7CE0B9
:1020F000DA48844208D101214014FFF715FB002182
:102100006014FFF711FB70E0D548844209D101212A
:10211000C804FFF709FB00214FF40020FFF704FB80
:1021200063E0D048844209D101210805FFF7FCFA99
:1021300000214FF48010FFF7F7FA56E0CA488442B6
:1021400009D101214805FFF7EFFA00214FF40010F3
:10215000FFF7EAFA49E0C548844208D1012140204E
:10216000FFF7EFFA00214020FFF7EBFA3DE0C0480F
:10217000844208D101218020FFF7E3FA002180206A
:10218000FFF7DFFA31E0BB48844208D10121801516
:10219000FFF7D7FA0021A015FFF7D3FA25E0B648DC
:1021A000844209D101210804FFF7BEFA00214FF44F
:1021B0008030FFF7B9FA18E0B048844209D1012114
:1021C0004804FFF7B1FA00214FF40030FFF7ACFAF2
:1021D0000BE0AB48844208D101218804FFF7A4FA40
:1021E00000214FF48020FFF79FFA10BD00220288E3
:1021F000944B98420ED0994B98420BD0B0F1804F3F
:1022000008D0914B984205D0904B984202D0904B09
:10221000984204D14FF68F731A404B881A438D4B66
:10222000984207D08C4B984204D04FF6FF431A4097
:10223000CB881A4302808B8883850B880385814B6A
:1022400098420BD0854B984208D08B4B984205D0D2
:102250008A4B984202D08A4B984201D10B7A03866E
:1022600001238382704770B5002400220023058C6F
:102270004FF6FE7635400584028C8388048B4FF63A
:102280008F752C40B51E2C400D882C43751E2A409E
:102290000D892A434D882A436A4DA8420BD06F4DC1
:1022A000A84208D0744DA84205D0744DA84202D06F
:1022B000734DA84213D14FF6F7752A404D892A4332
:1022C0004FF6FB752A408D882A434FF6FF652B4059
:1022D0004FF6FF552B408D892B43CD892B438380AF
:1022E0000483CD888586028470BD70B500240022E9
:1022F0000023058C4FF6EF7635400584028C8388E9
:10230000048B48F6FF752C404FF6FF452C400D8896
:102310004FF6FF7606EA05252C434FF6DF752A4077
:102320000D8906EA05152A434D8806EA05152A4354
:10233000444DA84202D0494DA8421DD14FF67F75A9
:102340002A404D894FF6FF7606EA05152A434FF6D7
:10235000BF752A408D8806EA05152A434FF6FF35DA
:102360002B404FF2FF752B408D8906EA85052B43E4
:10237000CD8906EA85052B4383800483CD880587B4
:10238000028470BD70B5002400220023058C4FF636
:10239000FF6635400584028C8388848B4FF68F75E9
:1023A0002C404FF6FC752C400D882C434FF6FF5502
:1023B0002A400D894FF6FF7606EA05252A434D8807
:1023C00006EA05252A431F4DA84202D0234DA84204
:1023D0001DD14FF2FF752A404D894FF6FF7606EA70
:1023E00005252A434FF6FF352A408D8806EA052544
:1023F0002A434EF6FF752B404DF6FF752B408D8915
:1024000006EA05152B43CD8906EA05152B43838083
:102410008483CD888587028470BD70B50022002337
:102420000024058C4EF6FF7635400584038C8488A5
:10243000828B48F6FF752A404FF6FF452A400D88EB
:1024400020E00000002C0140000400400008004093
:10245000000C004000100040001400400034014017
:10246000004C014000500140005401400018004061
:10247000001C00400020004000400140004401409A
:10248000004801404FF6FF7606EA05252A434DF63F
:10249000FF752B400D8906EA05352B434D8806EA6A
:1024A00005352B43FA4DA84202D0FA4DA84208D177
:1024B0004BF6FF752C408D894FF6FF7606EA8515A1
:1024C0002C4384808283CD88A0F84050038470BD63
:1024D000828B4FF2FF331A408283828B4FF6FF7359
:1024E00003EA01231A4382837047F0B50C46154670
:1024F000002200210026078C4EF6FF7C07EA0C071D
:102500000784828B018C4FF6FF7707EA043640F68A
:10251000FF473A404FF6FF7707EA05273A434FF661
:10252000FF7707EA03373A43D94FB8420ED0D94F65
:10253000B8420BD0B0F1804F08D0D74FB84205D089
:10254000D64FB84202D0D64FB84206D14DF6FF77EB
:10255000394046F48057394305E047F6FF57394084
:1025600044F48057394382830184F0BD828B4FF657
:10257000F3731A408283828B0A4382837047F0B5DB
:102580000C461546002200210026078C4FF6FF6CF2
:1025900007EA0C070784828B018C4FF6FF7707EA66
:1025A00004264FF60C773A404FF6FF7707EA0317F9
:1025B0002F433A43B64FB8420ED0B64FB8420BD075
:1025C000B0F1804F08D0B44FB84205D0B34FB842F5
:1025D00002D0B34FB84206D14FF6FF57394046F408
:1025E0008077394305E04FF2FF57394044F4807754
:1025F000394382830184F0BD028B4FF2FF331A40CE
:102600000283028B4FF6FF7303EA01231A4302830E
:102610007047F0B50C461546002200210026078CB5
:102620004FF6EF7C07EA0C070784028B018C4FF60C
:10263000FF7707EA041640F6FF473A404FF6FF7768
:1026400007EA03373A434FF6FF7707EA05273A438D
:102650008F4FB8420ED08F4FB8420BD0B0F1804FA1
:1026600008D08D4FB84205D08C4FB84202D08C4F65
:10267000B84206D14FF6DF77394046F010073943AC
:1026800005E04FF65F77394044F010073943028385
:102690000184F0BD028B4FF6F3731A400283028B64
:1026A0000A4302837047F0B50C461546002200210C
:1026B000068C4FF6FE773E400684028B018C4FF667
:1026C0000C7632407E1C06EA03162E433243704ECF
:1026D000B0420ED06F4EB0420BD0B0F1804F08D058
:1026E0006D4EB04205D06D4EB04202D06C4EB0423D
:1026F00006D14FF6FD76314044F00106314305E046
:102700004FF6F576314044F00106314302830184EF
:10271000F0BD70B505460C465D4885420ED05D485B
:1027200085420BD0B5F1804F08D05B48854205D07B
:102730005A48854202D05A48854200D100E000BF85
:10274000208850B92389A28861882846FFF7ABFF0B
:10275000E1882846FFF79EFF25E0208804280AD15B
:102760002389A28861882846FFF753FFE18828461D
:10277000FFF742FF17E0208808280AD12389A288A2
:1027800061882846FFF7FBFEE1882846FFF7EEFE4A
:1027900009E02389A28861882846FFF7A6FEE18820
:1027A0002846FFF795FE70BD2DE9F04105460C4621
:1027B00000260127608808B9022600E00026A088CC
:1027C000012801D1022700E001272088A0B9238930
:1027D000A28861882846FFF766FFE1882846FFF750
:1027E00059FF23893A4631462846FFF712FFE18810
:1027F0002846FFF701FF13E02389A2886188284655
:10280000FFF707FFE1882846FFF7F6FE23893A46DF
:1028100031462846FFF747FFE1882846FFF73AFF91
:10282000BDE8F0810A884B881A438B881A43CB880D
:102830001A430B891A434B891A438B891A43A0F810
:10284000442070474FF6FF71818000210180C180D4
:102850004180017270470021018041808180C180E8
:10286000018141818181C1817047002101804180C6
:10287000012181800021C1800181704700210180F8
:1028800041808180C1800181418181817047000048
:10289000002C0140003401400004004000080040CA
:1028A000000C004021B1028842F00102028004E0E5
:1028B00002884FF6FE731A400280704731B1B0F8BB
:1028C000442042F40042A0F8442005E0B0F844203F
:1028D000C2F30E02A0F8442070471AB183890B435B
:1028E000838102E083898B438381704781827047B3
:1028F00041EA0203A0F8483070471AB183890B43BC
:10290000838102E083898B438381704701894FF67D
:10291000F8721140018170470A46002101894FF683
:102920008F73194011430181704730B504460D463D
:1029300029462046FFF7F0FF208940F0070020815C
:1029400030BD2DE9F04104460D4616461F46602D68
:1029500006D13B46012231462046FFF75AFE05E0EC
:102960003B46012231462046FFF79DFE2946204680
:10297000FFF7D2FF208940F007002081BDE8F081F9
:1029800030B50C4600210189C9B24FF6FF7505EA42
:102990000325154325432943018130BD2DE9F0412D
:1029A00005460E4617469846002443463A463146A9
:1029B0002846FFF7E5FF2C894FF6F870044044F0F5
:1029C00007044FF68F70044044F070042C81BDE87A
:1029D000F081F0B504460D4616461F463B4632468A
:1029E00029462046FFF7CCFF208940F48040208113
:1029F000F0BD0185828270470A46002101884FF6AA
:102A00008F731940114301807047F0B50C4615468D
:102A10001E460021002200230189028B038C4FF601
:102A2000F877394021434FF6FC473A4040F201170E
:102A30003A434FF6DD773B404FF6FF7707EA06173C
:102A40002F433B43018102830384F0BD0A460021EA
:102A5000018B4FF68F7319401143018370470A466B
:102A60000021018B48F6FF7319404FF6FF7303EA0C
:102A700002231943018370470A460021818B4FF6D8
:102A80008F7319401143818370470A460021818B5F
:102A900048F6FF7319404FF6FF7303EA0223194308
:102AA0008183704721B1028842F08002028004E0F5
:102AB00002884FF67F731A400280704721B18288E6
:102AC00042F00402828004E082884FF6FB731A40D1
:102AD0008280704721B1828842F00802828004E03F
:102AE00082884FF6F7731A408280704721B182883E
:102AF00042F00102828004E082884FF6FE731A40A1
:102B0000828070470A460021018B4FF6F773194007
:102B10001143018370470A460021018B4FF2FF7376
:102B200019404FF6FF7303EA0223194301837047EC
:102B30000A460021818B4FF6F773194011438183B8
:102B400070470A460021818B4FF2FF7319404FF600
:102B5000FF7303EA02231943818370470A46002169
:102B6000018B4FF6FB7319401143018370470A46EE
:102B70000021018B4FF6FF3319404FF6FF7303EA34
:102B800002231943018370470A460021818B4FF6C7
:102B9000FB7319401143818370470A460021818BE2
:102BA0004FF6FF3319404FF6FF7303EA0223194330
:102BB000818370470A460021018B4FF67F731940CD
:102BC0001143018370470A460021018BC1F30E01B6
:102BD0004FF6FF7303EA02231943018370470A4645
:102BE0000021818B4FF67F73194011438183704719
:102BF0000A460021818BC1F30E014FF6FF7303EAF1
:102C000002231943818370470A460021018C4FF645
:102C1000FD7319401143018470470A460021018C5D
:102C20004FF6F77319401143018470470A4600219B
:102C3000018C4FF6DF7319404FF6FF7303EA02135E
:102C40001943018470470A460021018C4FF67F73B7
:102C500019404FF6FF7303EA0213194301847047CA
:102C60000A460021018C4FF6FF5319404FF6FF73BF
:102C700003EA02231943018470470A460021018CAC
:102C80004FF2FF7319404FF6FF7303EA0223194313
:102C9000018470470A460021018C4DF6FF731940EC
:102CA0004FF6FF7303EA023319430184704730B5CE
:102CB000002301248C40A3B2048C9C430484048C24
:102CC00002FA01F5ADB22C43048430BD30B50023C7
:102CD00004248C40A3B2048C9C430484048C02FA28
:102CE00001F5ADB22C43048430BD70B5034600201D
:102CF00000241846183001258D40ACB21D8CA54328
:102D00001D8409B1082909D100EB6100056825F08F
:102D1000700505600568154305600EE00D1FC5F3DD
:102D20004E052844056825F4E045056005684FF622
:102D3000FF7606EA02263543056070BD21B10288A0
:102D400042F00202028004E002884FF6FD731A404E
:102D50000280704721B1028842F00402028004E040
:102D600002884FF6FB731A400280704721B18288B7
:102D700042F08002828004E082884FF67F731A401E
:102D80008280704702884FF6F7731A4002800288EB
:102D90000A430280704782884FF68F731A40828000
:102DA00082880A438280704702894FF6F8731A407E
:102DB000028102890A430281704702894FF67F73BC
:102DC0001A40028102890A43028170478184704758
:102DD000818570478186704701877047818770477A
:102DE000A0F84010704702884FF6FF431A40028057
:102DF00002880A43028070470146888E7047014668
:102E0000088F70470146888F70470146B1F840002F
:102E100070470146888C70470146088D704702460E
:102E20000020138A0B400BB1012000E00020704706
:102E3000CA430282704730B50246002000230024B6
:102E4000158A05EA0103958905EA010413B10CB15D
:102E5000012000E0002030BDCA430282704700001C
:102E600010B50120FEF77AFC0020FEF777FC10BDBC
:102E70002A49086070472949091F08607047274997
:102E800084310860704701460020254A10884FF6BB
:102E90007F4210400843224A1080704701460020BC
:102EA0001F4A10884FF68072104008431C4A108059
:102EB000704708B500220092194A2C3A0092009AF5
:102EC00002440092009A116008BD08B50146002036
:102ED000009013482C380090009808440090009807
:102EE000008808BD0D489C300068C0B270470C488F
:102EF0000830008840F00100094908310880704717
:102F00000648A0300068C0B2704705480830008805
:102F100040F00200024908310880704704860D42E3
:102F20002C6C004010B501210807FEF70AFC0021B7
:102F30004FF08050FEF705FC10BD2A49086270472B
:102F400028490861704701460020274A106820F090
:102F5000E0000843106070472249A03108607047C4
:102F600010B502460020204B186820F003001043E3
:102F700018601E4B1B6843F004031C4C236001299E
:102F800001D130BF00E020BF184B1B6823F00403C1
:102F9000164C236010BD1448006840F0040012492C
:102FA00008600846006840F0020008600F480068AA
:102FB00040F004000D49086000BF00BF30BF7047FB
:102FC00001460020084A52680A400AB1012000E088
:102FD000002070470449096841EA8001024A1160F3
:102FE0007047000000000E420070004010ED00E04D
:102FF00029B1504A128802434E4B1A8004E04D4AD0
:10300000128882434B4B1A8070474A48001D008843
:1030100040F010004749091D088070474548001DD1
:1030200000884FF6EF7108404249091D088070473B
:10303000002140481C300188001F008841EA004000
:10304000704700B50246FFF7E0FF100C3949183110
:103050000880091D0A80FFF7E1FF00BD00B50246A8
:10306000FFF7D3FFC2F30340324908310880091D3E
:103070000A80FFF7D3FF00BD00B50246FFF7C5FF8A
:10308000100C2C4920310880091D0A80FFF7C6FF6B
:1030900000BD00202749103109880907080B254980
:1030A000143109880843704700BF2248001D00887A
:1030B00000F020000028F8D070471E48001D00884E
:1030C0004FF6F77108401B49091D088000BF1948D9
:1030D000001D008800F008000028F8D07047014665
:1030E0000020144A121D12880A400AB1012000E093
:1030F000002070470F49091D098881430D4A121DA0
:1031000011807047014600200A4A121D12880A40A9
:10311000D0B2084A12880A4012B108B1012000E07A
:10312000002070470349091D09888143014A121D87
:103130001180704700280040002109E0002201E0D2
:10314000531C9AB240F6B8339A42F9DB4B1C99B241
:103150008142F3DB70474FF40072FA4B1A60521051
:103160001A6020221B1F1A60F74AD06020221B1D04
:103170001A601B1F1A60D2001A60F34AD160202225
:103180001B1D1A601B1F1A60D2001A60704700B521
:1031900001210020FFF7DFFF4FF47A70FFF7CCFF2B
:1031A00000210120FFF7D7FF41F290711020FFF7B7
:1031B000D2FF4FF41C516020FFF7CDFF01216120A9
:1031C000FFF7C9FF02214620FFF7C5FF48F21001B3
:1031D0001320FFF7C0FF48F2FE011220FFF7BBFFEC
:1031E0004FF4A0610220FFF7B6FF41F23001032047
:1031F000FFF7B1FF40F203313020FFF7ACFF40F2A0
:1032000003313120FFF7A7FF40F203313220FFF7EF
:10321000A2FF4FF440713320FFF79DFF03213420BC
:10322000FFF799FF40F203313520FFF794FF142197
:103230003620FFF790FF40F203313720FFF78BFF76
:1032400040F203313820FFF786FF40F20331392086
:10325000FFF781FF4FF440713A20FFF77CFF032115
:103260003B20FFF778FF40F203313C20FFF773FF6C
:103270004FF4A0513D20FFF76EFF4FF400719220F4
:10328000FFF769FF40F203319320FFF764FF40F638
:103290000D019020FFF75FFF41F218010320FFF7B7
:1032A0005AFF40F273110720FFF755FF00BD00B52C
:1032B00043F20801E320FFF74EFF1221E720FFF75A
:1032C0004AFF41F23121EF20FFF745FF00210120A5
:1032D000FFF741FF4FF4E0610220FFF73CFF41F2AE
:1032E00030010320FFF737FF00210420FFF733FFF1
:1032F00040F207210820FFF72EFF00210920FFF7E9
:103300002AFF00210A20FFF726FF00210C20FFF7EB
:1033100022FF00210D20FFF71EFF00210F20FFF7E5
:103320001AFF00211020FFF716FF07211120FFF7D9
:1033300012FF00211220FFF70EFF00211320FFF7DC
:103340000AFF4FF47A70FFF7F7FE41F29061102008
:10335000FFF701FF40F227211120FFF7FCFE32208A
:10336000FFF7EAFE1D211220FFF7F5FE3220FFF7DE
:10337000E3FE4FF400611320FFF7EDFE1421292036
:10338000FFF7E9FE0B212B20FFF7E5FE3220FFF7C8
:10339000D3FE00212020FFF7DEFE00212120FFF7D1
:1033A000DAFE07213020FFF7D6FE40F20771312008
:1033B000FFF7D1FE06213220FFF7CDFE40F2047167
:1033C0003520FFF7C8FE41F604713620FFF7C3FE33
:1033D00004213720FFF7BFFE00213820FFF7BBFE96
:1033E00040F206713920FFF7B6FE40F201713C2031
:1033F000FFF7B1FE0F213D20FFF7ADFE0021502069
:10340000FFF7A9FEEF215120FFF7A5FE0021522072
:10341000FFF7A1FE40F23F115320FFF79CFE4FF44F
:103420001C516020FFF797FE01216120FFF793FEFA
:1034300000216A20FFF78FFE00218020FFF78BFE1E
:1034400000218120FFF787FE00218220FFF783FE05
:1034500000218320FFF77FFE00218420FFF77BFE01
:1034600000218520FFF777FE10219020FFF773FEE3
:1034700000219220FFF76FFE03219320FFF76BFEE0
:103480004FF488719520FFF766FE00219720FFF723
:1034900062FE00219820FFF75EFE41F21801032032
:1034A000FFF759FE40F273110720FFF754FE00BDED
:1034B00008B54FF6FF70ADF8000003208DF802004C
:1034C00010208DF8030069461F48FEF7D7F908BDA4
:1034D00008B54FF6FF70ADF8000003208DF802002C
:1034E00048208DF8030069461748FEF7C7F908BD64
:1034F00070B504464FF4007012490860401008602F
:103500002020091F08601048C4602020091D0860A1
:10351000091F0860C0000860FFF7DAFF4FF4806001
:10352000084908600848806885B20815091F0860C6
:10353000FFF7BEFF4FF400700249091F08602846DC
:1035400070BD0000140C01400010014008B50121BD
:103550001820FEF7CFF801212020FEF7CBF84FF41A
:10356000E460ADF8000001208DF8020010208DF815
:1035700003006946F848FEF781F9FFF799FFF6481E
:103580001030006840F4C460F3491031086008BD91
:1035900010B5FFF7DBFF0020FFF7AAFFEF49088017
:1035A0000846008848F23021884202D1FFF7EFFD3B
:1035B00001E0FFF77CFE0020FFF79AFFE749088053
:1035C00010BD01B5BDF80000E549088008BD01B592
:1035D000BDF80000E349088008BD30B504460D463B
:1035E00021462020FFF7B7FD29462120FFF7B3FD34
:1035F00030BD4FF40071D84A143211604910121FC7
:10360000116020211160D849C8602021121D11606D
:10361000121F1160C90011604900116070474FF41A
:103620000070CD4914310860401008602020091F47
:1036300008602220CC49C8602020C74914310860A6
:10364000091F0860C00008604000086070472DE94D
:10365000F04306468946174600240025A046B0469A
:1036600049464046FFF7B9FF00BF1EE0FFF7D7FF0E
:1036700000250FE037F814000121A940084020B9C7
:10368000B8480088FFF7B5FF03E0B5480088FFF7AA
:10369000B0FF6D1C102DEDD308F1010000F0FF0804
:1036A00049464046FFF799FF641C182CDED3BDE85D
:1036B000F08370B505460E461446A4F12000C4B24E
:1036C00004EB4400A94901EB001231462846FFF7FC
:1036D000BEFF70BDF0B507460C46002540F23F1610
:1036E00009E0227831463846FFF7E3FFA6F11000E3
:1036F00086B2641C6D1C207808B1142DF1D3F0BD86
:1037000010B504469AA12046FFF7E4FF10BD30B57E
:103710000546002400210846FFF75FFFFFF77FFF03
:1037200000BF03E02846FFF764FF641CB4F5963F32
:10373000F8D330BDF0B504460D4616461F46B442D8
:1037400006DBA01B401C81B25020FFF704FD03E004
:1037500000215020FFF7FFFC21465120FFF7FBFC22
:10376000BD4206DBE81B401C81B25220FFF7F3FC90
:1037700003E000215220FFF7EEFC29465320FFF71B
:10378000EAFC29462046FFF728FFF0BD00B54FF4BC
:10379000A073F022591EEF20FFF7CCFF41F2180171
:1037A0000320FFF7D8FC00BD2DE9F041064688460E
:1037B00015461F46002441463046FFF70EFF5FB90D
:1037C000FFF72DFF00BF04E065480088FFF711FFF9
:1037D000641CAC42F8D310E000240CE0FFF71FFF9C
:1037E0005F480088FFF705FF701CC6B241463046AF
:1037F000FFF7F3FE641CAC42F0D3BDE8F081F0B5F6
:1038000005460E4617461C460023224631462846EA
:10381000FFF7CAFFE919C8B2002322463146FFF775
:10382000C3FF01233A4631462846FFF7BDFF301B50
:10383000401C81B201233A462846FFF7B5FFF0BD90
:103840002DE9F04306460F4690460320A0EB4809B9
:10385000002445466EE07A1991B23219D0B2FFF7D2
:10386000BCFEFFF7DCFE3E480088FFF7C2FE7A1B75
:1038700091B23219D0B2FFF7B0FEFFF7D0FE384850
:103880000088FFF7B6FE7A1991B2321BD0B2FFF76B
:10389000A4FEFFF7C4FE32480088FFF7AAFE7A1B99
:1038A00091B2321BD0B2FFF798FEFFF7B8FE2C485A
:1038B0000088FFF79EFE3A1991B27219D0B2FFF755
:1038C0008CFEFFF7ACFE26480088FFF792FE3A1BFD
:1038D00091B27219D0B2FFF780FEFFF7A0FE204828
:1038E0000088FFF786FE3A1991B2721BD0B2FFF73B
:1038F00074FEFFF794FE1A480088FFF77AFE3A1B21
:1039000091B2721BD0B2FFF768FEFFF788FE144831
:103910000088FFF76EFEB9F1000F04DA062000EB15
:103920008400814405E0601B0A2101EB8000814492
:103930006D1E641CAC428ED9BDE8F08370B506469E
:103940000024002540F23F110020FFF746FEFFF75C
:1039500066FE00BF2DE00000000C01407400002056
:1039600070000020720000200010014092630008E7
:103970002020202020202020202020202020202047
:10398000202020200000000000250FE056F8240031
:103990000121A940084020B95F480088FFF729FEAF
:1039A00003E05E480088FFF724FE6D1C202DEDD358
:1039B000641CB4F5166FE7D370BD70B504460025DE
:1039C00000266688A08846EA00466589A08945EAFF
:1039D0000045701B46082C4441F208010320FFF704
:1039E000BAFBFFF71CFE002504E02088FFF701FE6C
:1039F000A41C6D1CB542F8D341F218010320FFF757
:103A0000AAFB70BD10B54FF4007045490860401026
:103A100008602020091F086022204249C860202039
:103A20003F490860091F0860C0000860FFF750FDAB
:103A30004FF480603A4908603A48806884B20815BB
:103A4000091F0860FFF734FD4FF400703449091F67
:103A50000860204610BD00B500211020FFF77BFB59
:103A600000211120FFF777FB00211220FFF773FBE5
:103A700000211320FFF76FFB1420FFF75DFB41F2DD
:103A8000B0711020FFF767FB40F237111120FFF7EC
:103A900062FB0520FFF750FB40F239111220FFF7BF
:103AA0005AFB0520FFF748FB4FF4E8511320FFF7BE
:103AB00052FB13212920FFF74EFB0520FFF73CFBAB
:103AC00040F273110720FFF746FB00BD00B540F23E
:103AD00073110720FFF73FFB00BD00B50021072051
:103AE000FFF739FB00BD30B5054600210846FFF75A
:103AF00074FDFFF794FD002409E015F8142061001F
:103B0000491C695C42EA0120FFF773FD641CB4F5AF
:103B1000963FF2DB30BD00007200002070000020F4
:103B2000140C01400010014000B587B001214FF492
:103B30008160FDF7DFFD0120ADF8040000208DF865
:103B4000070001A92848FDF799FE002002908DF892
:103B50000C008DF80D004FF46020049000200590BB
:103B600001208DF8180002A92048FEF76AF8032307
:103B7000012208211D48FEF7FCF801211B48FEF731
:103B80008CF81A48FEF7ABF800BF1848FEF7ACF8FF
:103B90000028FAD11548FEF7B1F800BF1348FEF728
:103BA000B2F80028FAD107B000BD2DE9F05F01217D
:103BB0000E48FEF7B2F80D48FEF742F9834601F0D1
:103BC00036FF80464FF06632094B01F043FF064650
:103BD0000022084B01F0A6FD044601F0C9FC824614
:103BE0005046BDE8F09F0000000C01400028014055
:103BF00066660A4000FEAF4030B589B005460C4607
:103C000001210520FDF776FD01210846FDF77FFD26
:103C10000220ADF8040018208DF8070003208DF86D
:103C2000060001A91848FDF729FE681E80B2ADF80C
:103C30001C004720ADF818000020ADF81E00ADF8BC
:103C40001A0006A94FF08040FEF7D0FA6020ADF8C8
:103C500008000120ADF80A00ADF80E400020ADF8D4
:103C6000100002A94FF08040FEF73FFB0821C80674
:103C7000FEF751FF01218807FEF714FF0121880795
:103C8000FEF710FE09B030BD0008014010B588B045
:103C900004461D208DF8000000208DF80100012051
:103CA0008DF802008DF803006846FDF73AFF012108
:103CB0000220FDF72CFD01210420FDF71BFD8020D3
:103CC000ADF81C0004208DF81F0003208DF81E00A5
:103CD00007A91748FDF7D2FDADF814404720ADF80D
:103CE00010000020ADF81600ADF8120004A911482C
:103CF000FEF77CFA0420ADF804000020ADF80600C1
:103D00000120ADF808000020ADF80A00ADF80C0065
:103D100001A90848FEF7FDFC01210648FEF7C2FD97
:103D2000012204210348FEF7D8FD08B010BD0000B1
:103D3000000801400004004008B503208DF8000091
:103D400000208DF801008DF8020001208DF803009D
:103D50006846FDF7E6FE01214FF0C050FDF7D7FCA5
:103D60000120FFF7EAF8FFF77BF80120FDF748FC98
:103D700000BF6120FDF793FB0028FAD04FF40070DC
:103D8000FDF741FC0120FDF744FCFFF796F9FFF732
:103D90008BF901210846FFF72BF9FFF785F949F662
:103DA0004040FFF75BF9FFF77FF949F6A620FFF7E0
:103DB00048F9FFF779F908BDF0B587B0002500266E
:103DC0000027FFF735F904464FF46160B4FBF0F5C6
:103DD000B4FBF0F100FB11403C21B0FBF1F64FF4D5
:103DE0006160B4FBF0F100FB11403C21B0FBF1F24B
:103DF00001FB120733462A461AA102A8009700F0D9
:103E0000C5FA02A99020FFF765FC07B0F0BD10B518
:103E10000024FFF70DF94FF46161B0FBF1F201FBF3
:103E200012003C21B0FBF1F201FB1204204610BD50
:103E300010B50024FFF7FCF84FF46161B0FBF1F41A
:103E4000204610BD10B50024FFF7F2F84FF4616171
:103E5000B0FBF1F201FB12003C21B0FBF1F4204673
:103E600010BD0000207265616C2074696D653A2593
:103E70003032642D253032642D253032640000004C
:103E800070B505460C4600F075F8A02000F00CF95E
:103E900000F0ACF8284600F007F900F0A7F820463B
:103EA00000F002F900F0A2F800F082F870BD70B5E1
:103EB000044600F05FF8A02000F0F6F800F096F855
:103EC000204600F0F1F800F091F800F053F8A1203E
:103ED00000F0EAF800F08AF800F012F9054600F068
:103EE00085F800F065F8284670BD000008B5802010
:103EF000ADF8000002208DF8020028208DF80300A4
:103F000069469F48FDF7BAFC08BD08B58020ADF8AA
:103F1000000002208DF8020010208DF80300694691
:103F20009748FDF7ABFC08BD10B5044624B18021CD
:103F30009348FDF750FD03E080219148FDF74DFDCA
:103F400010BD10B5044624B140218D48FDF743FD56
:103F500003E040218A48FDF740FD10BD10B58021E7
:103F60008748FDF71EFD10BD002100E0491C81427D
:103F7000FCD3704710B50120FFF7D6FF4FF4FA705D
:103F8000FFF7F2FF0120FFF7DCFF4FF4FA70FFF7B5
:103F9000EBFF0020FFF7C8FF4FF4FA70FFF7E4FFD4
:103FA0000020FFF7CEFF4FF4FA70FFF7DDFF10BDE2
:103FB00010B50020FFF7C5FF4FF4FA70FFF7D4FFEC
:103FC0000020FFF7B1FF4FF4FA70FFF7CDFF01209B
:103FD000FFF7B7FF4FF4FA70FFF7C6FF0120FFF7B6
:103FE000A3FF4FF4FA70FFF7BFFF10BD10B5052413
:103FF000FFF77CFF4FF4FA70FFF7B6FF0120FFF7E1
:10400000A0FF4FF4FA70FFF7AFFF0CE0601E84B220
:104010004FF4FA70FFF7A8FF2CB9FFF776FFFFF710
:10402000C7FF002010BDFFF799FF0028EED1FFF772
:104030006CFF0020FFF785FF4FF4FA70FFF794FF45
:104040000120EFE710B50020FFF76EFF4FF4FA7084
:10405000FFF78AFF4FF4FA70FFF786FF0120FFF7A2
:1040600070FF4FF4FA70FFF77FFF0020FFF769FF42
:104070004FF4FA70FFF778FF10BD10B50120FFF77D
:1040800053FF4FF4FA70FFF76FFF0120FFF759FF5E
:104090004FF4FA70FFF768FF0020FFF752FF4FF46C
:1040A000FA70FFF761FF10BD70B5044608251BE0EC
:1040B0000020FFF746FF4FF4FA70FFF755FF04F0BA
:1040C0008000FFF731FF4FF4FA70FFF74DFF6006F5
:1040D000040E4FF4FA70FFF747FF0120FFF731FF9E
:1040E0004FF4FA70FFF740FF2800A5F10101CDB2AF
:1040F000DED1FFF726FF4FF4FA70FFF735FF70BDF2
:1041000070B508250024FFF7F1FE16E06006040EE6
:104110000020FFF716FF4FF4FA70FFF725FF4FF46A
:10412000FA70FFF721FF0120FFF70BFF4FF4FA7041
:10413000FFF71AFFFFF712FF04432800A5F1010162
:10414000CDB2E3D1FFF7FDFE4FF4FA70FFF70CFF9D
:10415000FFF7DBFE204670BD08B501210820FDF702
:10416000C9FAC020ADF8000002208DF8020010202E
:104170008DF8030069460248FDF780FB08BD00008A
:10418000000C014008B501210C20FDF7B3FA40F204
:104190000110ADF8000001208DF8020048208DF8D4
:1041A000030069461348FDF769FB0620ADF80000DF
:1041B00069461148FDF762FB08BD10B500240121D6
:1041C0000C48FDF7EEFB00B931244FF4807109482B
:1041D000FDF7E7FB00B9322402210748FDF7E1FBB8
:1041E00000B9332404210448FDF7DBFB00B9342473
:1041F000204610BD00080140000C014008B5012117
:104200003020FDF777FA4FF47F40ADF80000012031
:104210008DF8020010208DF8030069462648FDF74E
:104220002DFB0420ADF8000069462448FDF726FB6D
:104230004FF47F412048FDF7CEFB04211F48FDF7D6
:10424000CAFB04211D48FDF7C8FB08BD70B5064632
:104250000C461546012E04D101021748FDF7BDFB9F
:1042600004E04FF480711448FDF7B5FB012C04D134
:1042700061021148FDF7B1FB04E04FF400710E48F4
:10428000FDF7A9FB012D04D1A9020B48FDF7A5FB01
:1042900004E04FF480610848FDF79DFB4FF478413E
:1042A0000548FDF798FB04210448FDF794FB042121
:1042B0000248FDF792FB70BD001001400014014060
:1042C00000B587B026208DF8040001208DF8050088
:1042D0008DF806008DF8070001A8FDF722FC0121EA
:1042E0000520FDF707FA01214804FDF710FA042024
:1042F000ADF8180003208DF81A0018208DF81B0067
:1043000006A92048FDF7BAFA0820ADF818000420E5
:104310008DF81B0006A91B48FDF7B0FA4FF41650A4
:1043200002900020ADF80C00ADF80E00ADF81000C2
:10433000ADF814000C20ADF8120002A91248FCF7E9
:10434000AAFE012240F225510F48FCF73CFF012153
:104350000D48FCF72CFF07B000BD70B504460025E2
:1043600000BF615D0848FCF78FFF00BF8021064851
:10437000FCF7F8FF0028F9D0681CC5B2605D002882
:10438000EFD170BD00080140004400400FB41CB5DF
:10439000074B06AA7B4469460090059800F075FB20
:1043A0000020694600F084FB1CBC5DF814FB000093
:1043B0001907000070B5044685690068C10601D57B
:1043C000302600E02026C00707D070BDD4E90121C7
:1043D00030469047206A401C20626D1EF6D570BDA5
:1043E00070B5044685690078C00707D170BDD4E96F
:1043F000012120209047206A401C20626D1EF6D5C6
:1044000070BD00002DE9F0410646002410687529B2
:10441000314615A510D0AFF30080002802DA4042E3
:1044200012A507E031688A0701D511A502E0490706
:1044300004D510A5012401E0AFF3008000210A2378
:1044400006F1240707E0B0FBF3F203FB1200303063
:1044500078541046491C0028F5D123462A46304698
:10446000BDE8F04100F0A7B8000000002D000000FA
:104470002B000000200000002DE9F05F8946044673
:104480004FF0000ADFF824B1FB44C0F820A020461A
:10449000E168884700287DD0252806D0D4E901218D
:1044A0009047206A401C2062F1E700255F462046C5
:1044B000E16888472028064607DB312E05D2B81967
:1044C00010F8200C08B10543F1E7A80701D525F045
:1044D0000405C4F81CA00027C4F818A02A2E09D08F
:1044E000304601F027F838B304EB8708303EC8F8AF
:1044F000186019E059F8041B204604EB870291610B
:10450000E1688847012F064618D1E069002820DAC3
:1045100025F020051DE0D8F8180000EB800006EB20
:1045200040003038C8F818002046E1688847064641
:1045300001F000F80028EED1012F0AD02E2E08D16C
:104540002046E16888477F1C0646022F45F020057B
:10455000C4DBA069002803DA404245F00105A061F0
:10456000E80701D025F01005A6B1A6F141001928F1
:1045700002D8203645F400654A463146204625607B
:104580004D46FBF7EDFD60B1012807D0ED1D25F08C
:10459000070000E007E000F1080978E705F10409E9
:1045A00075E730467AE7206ABDE8F09FD630000014
:1045B0007047704770472DE9F0470D46994692467F
:1045C000044600F124080168880604D5E06921F05A
:1045D0001001216000E00120A84201DD471B00E03E
:1045E0000027A1697A1902EB0900081AA061207856
:1045F000C00602D42046FFF7DDFE002608E0D4E91D
:1046000001211AF806009047206A401C761C20629F
:104610004E45F4DB2078C0060AD52046FFF7CAFED7
:1046200006E0D4E9012130209047206A401C206236
:10463000381EA7F10107F4DC07E0D4E9012118F8DE
:1046400005009047206A401C2062281EA5F1010544
:10465000F3DC2046FFF7C4FE2078000602D50220D6
:10466000BDE8F0870120FBE770472DE9FF4F0C46BE
:104670001E464FF0FF378BB0D2E90001DDF86080B5
:104680000A908A46C1F30A5505B93D4600210846FD
:104690004FF00000BAF1000F00F4400005DA00EB23
:1046A00080004FF4400101EA50004FEA9059B9F1FF
:1046B000010F00DDB9460A9850EA4A000ED044F6D0
:1046C0001050A5F2FF3545432F14B8F1000F1ED04E
:1046D0007542291E1EDDC9F100021CE0B8F1010F70
:1046E0004FF0000001D0302103E0F24305E02154F7
:1046F000401CB042FBDB30460022002121540B99C4
:10470000C1F80880C1E900200FB0BDE8F08FBD1BE3
:104710006D1CDEE74A4600DA694206A800F058FA46
:1047200006AB93E8070003AB83E8070050460A99FD
:1047300000F031FB8DE80700A0F500501F38009015
:104740000398002D09DD42F21F014A46084403A9DF
:104750000390684600F090FD08E0A0F500504A463E
:104760001F3803A90390684600F09AFD8DE8070002
:104770000004000C03D04FF0FF30410800E0104669
:10478000B8F1000F03D00022009215461EE0751EFE
:1047900005D400F097F9303262556D1EF9D5B34655
:1047A0000122084302D000227F1C04E02078302838
:1047B00001D100227F1E002A099786D01DE0112D0D
:1047C00007DA00F07FF9303262556D1C50EA0102C1
:1047D000F5D1084302D00098C8B10EE00021681E50
:1047E00005E0235C625C63542254401E491C8142F4
:1047F000F7DBAB46A81B401E0990002004F80B0015
:104800000B98099AC0F80880C0E9002B7CE71126B4
:104810004FF0000859E72DE9F04F88460446D21DB5
:1048200022F0070191B0D1E90001CDE90A0100F0C1
:104830006DFE02460B98C00F01D02D2007E02068C6
:10484000810701D52B2002E0202101EAC000032AC4
:10485000099001D0072A05DB03464146204600F0B7
:1048600077F909E12078800601D5E06900E00620AB
:10487000B8F1650F814606D0B8F1660F18D0B8F1CF
:10488000670F70D131E00020B9F1110F009001DB0A
:10489000112301E009F101030AAA01A90CA8FFF7FD
:1048A000E4FEDDE90C70002609F10105834647E0CE
:1048B00001204B4600904FF000470AAA01A90CA81E
:1048C000FFF7D3FEDDE90DB00C995D46002610B967
:1048D00009F101000D18B9EB050003D4C0F1FF3652
:1048E00009F10105A5EB09002BE0B9F1010F01DA8F
:1048F0004FF001090020B9F1110F0090484601DD89
:10490000112300E003460AAA01A90CA8FFF7ADFE97
:10491000DDE90C704D4600268346207800070AD456
:10492000AB4500DA5D4601A8012D04DD411911F8FF
:10493000011C302907D04F4502DA17F1040F04DAC1
:10494000012082460FE06D1EEEE7002F02DCED1B1A
:104950003E4403E0781CA84200DD7D1CB81B00F13A
:10496000010A4FF000472078000703D4AA4501DB75
:104970004FF0FF3A0021B7F1004F0DF143088DF8D9
:10498000431022D002202B23002F01DA7F422D2357
:104990004FF00A0C011EA0F1010000DC47B197FBAB
:1049A000FCF10CFB11720F46303208F8012DF1E7D3
:1049B000A8F1010003702188090501D5452100E017
:1049C0006521A0F1010800F8011C09980FA9A1EBCD
:1049D0000807FF1D00B10120411901EBEA70A16930
:1049E0003844081A401EA0612078C00602D4204630
:1049F000FFF7E0FC099828B1D4E901219047206A2B
:104A0000401C20622078C00622D52046FFF7D2FC49
:104A10001EE0002E04DBB34502DD01A8805D00E04E
:104A20003020D4E901219047206A401C2062761C86
:104A3000AAF101005FEA000A0AD100F03FF8C0685D
:104A40000168405CD4E901219047206A401C206243
:104A5000281EA5F10105DCDC07E0D4E9012118F8E6
:104A6000010B9047206A401C2062381EA7F1010705
:104A7000F3DC2046FFF7B4FC022011B045E600004D
:104A800001694A1C02610878704700B58FB0CDE912
:104A900001310021059105497944CDE90310114602
:104AA0006846FFF7E9FC0FB000BD0000E5FFFFFF1F
:104AB0000A6802F8010B0A6070470000004870475E
:104AC000B402002030B5B0F10A024FEA900E71F145
:104AD00000034EEA817EB0EB0E0061EB91014FEADC
:104AE000101E4EEA017E10EB0E0041EB11114FEA51
:104AF000102E4EEA016E10EB0E0041EB11214FEA31
:104B0000104E4EEA014E10EB0E0041EB11414018E1
:104B100041F100014FEAD00040EA41704FEAD10173
:104B200010EB80054FEA810444EA907444EB0104E1
:104B30006D1944EB0404521BA3414FF0000348BF1E
:104B40000A3200D530BD401C41F1000130BD0000EB
:104B50002DE9F0411F46044603260168072A01F4A7
:104B6000006004DB08B116A505E016A503E008B156
:104B700015A500E015A521F010002060A069C01E59
:104B8000A0610FB1401EA0612046FFF713FC4FB19A
:104B9000D4E9012138469047206A401C2062C01C9D
:104BA000206206E0206AFAE7D4E9012115F8010B3A
:104BB0009047761EF8D22046FFF712FCBDE8F08140
:104BC0004E414E006E616E00494E4600696E6600B1
:104BD0002DE9F047814616468AB0324878440DC820
:104BE0008DE80D002F487844801C03AC0DC884E884
:104BF0000D0041F69B303722014491FBF2F0A0F109
:104C0000800502FB10141B3C02D56442012000E029
:104C10000020DFF890A080460027FA44AAF1BA0AE3
:104C20000DE0E00709D03246684607EB47010AEB82
:104C3000810100F035FB8DE8070064107F1C002C1B
:104C4000EFD1184F7F44A83F18E0E80714D007EBD6
:104C500004100DF1180A90E80E008AE80E00C068F2
:104C6000F04201D198190890324606A903A800F035
:104C700017FB03AB83E807006D10641C002DE4D123
:104C800032466946B8F1000F03A802D000F0F4FAEA
:104C900001E000F005FBC9E90001C9F808200AB0ED
:104CA000BDE8F087102A00000048704794020020F9
:104CB0007546FFF7F9FFAE4605006946534620F0FA
:104CC0000700854618B020B5FBF77CFABDE8204008
:104CD0004FF000064FF000074FF000084FF0000BB8
:104CE00021F00701AC46ACE8C009ACE8C009ACE86B
:104CF000C009ACE8C0098D4670470446AFF3008098
:104D00002046FBF74AFA00004FF0013C50F8042B14
:104D100051F8043B9A4221D1A2EB0C03934313EACE
:104D2000CC1317D150F8042B51F8043B9A4215D1FB
:104D3000A2EB0C03934313EACC130BD150F8042BD2
:104D400051F8043B9A4209D1A2EB0C03934313EAB6
:104D5000CC13DBD04FF00000704700BFD01A01BA6F
:104D6000B1FA81F101F0180122FA01F0CB40C1F152
:104D70002001DBB2C0B2C01A2CFA01F3D11A914360
:104D800011EAC311E6D1704701491820ABBEFEE716
:104D90002600020070475FEA400C08BF91F0000F48
:104DA0004FEA8C234FEAC12243EA51514FEA1C508B
:104DB00018BF00F5F0404FEA300018BF41F0004145
:104DC0005FEA6C5C00F02980BCF1FF3F08BF40F057
:104DD00080407047130C06BF12044FF0100C4FF0C8
:104DE000000C130E04BF12020CF1080C130F04BFC9
:104DF00012010CF1040C930F04BF92000CF1020C91
:104E0000D30F04BF52000CF1010C11464FF0000209
:104E1000A0F11F00A0EB0C00704711F0004F08BF7D
:104E2000704731F000413FF4D5AF0B0C06BF0904C9
:104E30004FF0100C4FF0000C0B0E04BF09020CF1E8
:104E4000080C0B0F04BF09010CF1040C8B0F04BFFD
:104E500089000CF1020CCB0F04BF49000CF1010CCE
:104E6000CCF12003A0EB0C0022FA03F302FA0CF2BF
:104E700041EA030100F10100704720F07F4C80EA15
:104E8000030023F07F47ACEB070303F57C5300F0EE
:104E9000004003F1FF032DE980494FEA154B09B4A7
:104EA0004FEA144325EA0B4E24EA03480FF2042686
:104EB00006EB132749083E785FEA320203FB0667D8
:104EC000C7F5000707FB06F64FEA54374FEAD64608
:104ED00006F1020607FB066CCCF1005C4FEA1C47AA
:104EE0002CEA074C07FB06F40CFB06F504EB154611
:104EF0004FEA961634BF00204FF000404FEAD137FA
:104F000006FB07FC4FEA1C4C0CFB0BF7D21B03FB08
:104F10000CF761EB07010CFB0EF7B0EB074072EBEF
:104F200017420CFB08F734BFA2EB0742B2EB074273
:104F300061EB17414FEA0C444FEA910706FB07FC6F
:104F40004FEA1C4C0CFB0BF7B0EBC74072EB57322F
:104F500003FB0CF734BFA2EBC742B2EBC74261EBD5
:104F600057310CFB0EF7B0EBC70072EB57720CFB1E
:104F700008F734BFA2EBC702B2EBC70261EB57716F
:104F8000039F4FEA816141EA921104EBCC044FEA9E
:104F9000D1374FEA826206FB07FC42EA90124FEAE1
:104FA00080604FEA1C4C0CFB0BF7D21B03FB0CF789
:104FB00061EB07010CFB0EF7B0EB074072EB1742F9
:104FC0000CFB08F734BFA2EB0742B2EB074261EBE0
:104FD00017414FEA8C554FEA910704EB9C2406FBDE
:104FE00007FC4FEA1C4C0CFB0BF7B0EBC74072EB15
:104FF000573203FB0CF734BFA2EBC742B2EBC742F8
:1050000061EB57310CFB0EF7B0EBC70072EB577238
:105010000CFB08F734BFA2EBC702B2EBC70261EB8F
:10502000577115EB4C254FEA816141EA92114FEA25
:1050300082624FEAD13742EA901206FB07FC44F144
:1050400000044FEA80604FEA1C4C0CFB0BF7D21BAC
:1050500003FB0CF761EB07010CFB0EF7B0EB07400D
:1050600072EB17420CFB08F734BFA2EB0742B2EB1E
:10507000074261EB174115EB1C154FEA813141EAFC
:1050800092414FEA823242EA90424FEA80304FEA40
:105090000C7644F1000448EA03434EEA0B484FF013
:1050A000000EB2EB080C71EB030724BF62463946D1
:1050B0004EEB0E0E4FF0000B0018524149414BEBE6
:1050C0000B0BB2EB080C71EB03077BF1000B24BF59
:1050D000624639464EEB0E0E4FF0000B001852415F
:1050E00049414BEB0B0BB2EB080C71EB03077BF167
:1050F000000B24BF624639464EEB0E0E51EA020702
:1051000018BF46F0010616EB0E7655F1000254F179
:10511000000103D5BDE88901BDE80088BDE889012B
:10512000B619BDE80048524141EB0101A3F101036A
:10513000704780807F7E7D7C7B7A79787776767504
:105140007473727171706F6E6E6D6C6C6B6A6A697C
:105150006868676666656464636362616160605F16
:105160005F5E5E5D5D5C5C5B5B5A5A59595858578F
:1051700057565655555554545353525252515150F7
:1051800050504F4F4F4E4E4D4D4D4C4C4C4B4B4B4A
:105190004A4A4A4949494848484747474746464690
:1051A00045454544444444434343434242424241CB
:1051B0004141002B26D4770021D01CB54FEA370798
:1051C00003B44FF010004FF010014FF000000FBC7F
:1051D0000BF1010BBDE81040BBF1010F08BF5FEA06
:1051E000170722BF12F1010211F101014FF0004136
:1051F00043F1000300F0004043EA00007047F9D398
:105200005708DAE746EA064613F1400F4FEA16461A
:105210001FDD13F1200FDFBF16430A4600212033A4
:105220005B42C8D0C3F1200746EA064602FA07F7F8
:105230004FEA164646EA0706C3F1200722FA03F2B0
:1052400001FA07F721FA03F14FF0000342EA0702DF
:10525000B1E746EA020646EA06464FEA164646EA3D
:105260000106BCBF46EA0646360C4FF000034FF07D
:1052700000024FF000019EE72DE9C048934630B48C
:1052800091E8380007C831EA400C48BF34EA430CC3
:1052900003D5FFF7F2FDFFF78CFFF0BCBDE80088F7
:1052A0002DE9C048934630B491E8380007C810F0A3
:1052B000804F08BF13F0804F03D100F005F8FFF7CF
:1052C00078FFF0BCBDE8008820F07F4780EA03004B
:1052D00023F07F4C07EB0C03A3F57C5300F0004058
:1052E000A3F1FE0392F0000F00F0B38095F0000FE1
:1052F00000F077802DE901494FEA11404FEA14464A
:1053000021EA004800FB06FC24EA064708FB06F6F3
:1053100007FB08F800FB07F718EB06484CEB164CA8
:105320004FEA124B18EB07484FEA15464CEB174073
:1053300022EA0B4E0BFB06FC25EA06470EFB06F69F
:1053400007FB0EFE0BFB07F71EEB064E4CEB164C55
:105350004FF000061EEB074E4CEB174B18EB0B08FB
:1053600040F1000018EB0E0B58EB000840F1000074
:105370008F1A4FF000013CBFC943661B14BFB5EB49
:10538000040C00213CBFC943F61B4FEA17444EEA08
:105390008E0E27EA04454FEA1C4704FB07622CEAFD
:1053A000074C05FB07F70CFB05F604FB0CFC16EBA2
:1053B000074642EB174216EB0C4642EB1C421BEB36
:1053C000060658EB0202414146EA9E0601D5BDE8B9
:1053D0000189B619524141EB0101A3F10103BDE876
:1053E00001894FEA14454FEA114724EA054621EAAC
:1053F000074C05FB07F406FB07F70CFB06F105FB62
:105400000CFC11EB074144EB17444FEA124711EB38
:105410000C4144EB1C4422EA074C05FB07F206FB57
:1054200007F70CFB06F605FB0CFC16EB074642EBF8
:10543000174216EB0C4642EB1C456A1854F100016A
:1054400048BF7047B619524141EB0101A3F1010376
:10545000704795F0000F37D04FEA11424FEA1447DA
:1054600021EA024624EA074C02FB07F106FB07F794
:105470000CFB06F402FB0CFC14EB074441EB174158
:105480004FEA154714EB0C4441EB1C4125EA074C4D
:1054900002FB07F506FB07F70CFB06F602FB0CFC0C
:1054A00016EB074645EB174516EB0C4645EB1C4241
:1054B000121951F1000148BF7047B619524141EB32
:1054C0000101A3F1010370474FEA14454FEA114768
:1054D00024EA054621EA074C05FB07F106FB07F71E
:1054E0000CFB06F24FF0000605FB0CFC12EB07422A
:1054F00041EB174112EB0C4251EB1C4148BF704786
:10550000921841EB0101A3F101037047490050EAF1
:10551000C12018BF04204A0D18BF40F0010040F21E
:10552000FF72B2EB515F08BF40F00200012808BFD4
:105530000520704730380A2801D20120704700202A
:105540007047000010B500290AD00878002807D05D
:1055500005487844FFF7D8FB002801D0002010BD93
:105560000248784410BD0000D6200000CE20000084
:1055700021F00042A2F16052B2F5801F01F0004319
:1055800028BFD2F17F6C0BD95FEA001C43EAC2024C
:1055900042EB507018BF704728BF20F001007047E1
:1055A000B2F5801FBCBF184670474FEA410C1CF58E
:1055B000001F02D2084600F03FBE70B500F0F4FABA
:1055C00000000089FFF7F6BF4FF00040A0F5800013
:1055D0007047000010B591EA030F48BF83F0004305
:1055E00000F13E83841A71EB030C05D2121943EBD0
:1055F0000C03001B61EB0C01DFF824E14FEA1154AE
:10560000A4EB135C1EEA430F18BF9EEA445F73D0FD
:1056100023EA0E03DCF1200E21EA045143F4801347
:1056200032D322FA0CFE10EB0E0023FA0CFE41EBF3
:105630000E01CCF1200E03FA0EFE10EB0E0051F11C
:105640000001B1F5801FCCF1200E32D201EB0451E4
:1056500012FA0EF2BDE8104058BF7047401C38BF28
:105660005FEA420218BF7047002814BF20F0010013
:1056700041F100014FEA410313F5001F38BF7047A5
:10568000A1F1C04100F0DEBA012A43EB0302ACF104
:10569000200CDCF11F0E32BF4FF0000E23FA0CF38A
:1056A00010EB030041EB0451B4EB115FD0D0A1EB40
:1056B000045101F5801149085FEA300001EB045103
:1056C0000ED350F1000038BF12FA0EFE08D1BDE82B
:1056D0001040C9E7401C38BF5FEA4202CAD1C3E7A5
:1056E000BDE810404FEA410313F5001F38BF704773
:1056F000A1F1C04100F0A6BA9EEA445F08D011EAC9
:105700005E0FBDE8104004BF01F00041002070476B
:10571000BDE8104070B500F047FA00BF64FBBE3E24
:105720000000E0FF2DE9C04130B4DFF8A0C23CEA40
:10573000111418BF3CEA131400F0EC8081EA030551
:105740001CEA111444EAD57418BF1CEA131500F0C2
:10575000C780A4EB05044FF0004545EAC12145EAA6
:10576000C32341EA505143EA525304F17F749942F2
:1057700004F500344FEAC0204FEAC22208BF90422D
:1057800000F09C804FEA13650FF24016765D4FEAF9
:10579000134506FB05F7C7F1807706FB07F74FEACD
:1057A000D737A7FB03687642C8F58038A7FB06CE3B
:1057B00038BFA8F1010807FB08E64FF0000EA6FB72
:1057C000028CE6FB03CEDCF1000CCEF1004E38BFBC
:1057D000AEF1010EA6FB0C584FF000074FF000058C
:1057E000E6FB0E87A1FB08C6A0FB07CE16EB0E0654
:1057F00045F10005E1FB076515F1E04E7EBFA4F51C
:1058000080345FEA46066D4116F1800745F10005D8
:105810004FEA17274FEA066647EA0567A6F1DE4614
:10582000B6F1805F4FEA15251FD9384624F0010CE8
:1058300005EBC471BCF1FE6F01EB0C1102D8F0BC9A
:10584000BDE8008124425CBF01F5801E9EEAC47F52
:1058500002D4F0BCBDE80081244238D4F0BCA1F1F0
:10586000C041BDE8004100F0EDB94FEAD22242EA62
:1058700043524FEAD323A7FB02864FEAD02040EAE7
:10588000415007FB03661EEA0E0F4FEAD12105FBCC
:10589000026658BFA6EB0056B6EB00564FEA520E12
:1058A0004EEAC37E18EB0E0E56EB530EBDD518EB29
:1058B00002085E417F1C55F10005B6E74FF48015E4
:1058C0004FF000074FF000064FF00008ADE7F0BCC6
:1058D0004FF0000001F1C04101F00041BDE800813E
:1058E00011EA0C1F0CEA131500D00CE013EA0C1F90
:1058F00000F025804FF00000F0BC81EA030101F0C8
:105900000041BDE80081F0BC81EA0301BDE800412F
:1059100000F098B9F0BCBDE8004170B500F044F962
:10592000097EFC3E00F007B881EA03014FF0000059
:1059300001F00041704781EA030100F083B9F0BC37
:105940004FF000002249BDE800417047FFFDFBF920
:10595000F7F5F4F2F0EEEDEBE9E8E6E4E3E1E0DEA2
:10596000DDDBDAD8D7D5D4D3D1D0CFCDCCCBCAC814
:10597000C7C6C5C4C2C1C0BFBEBDBCBBBAB9B8B73B
:10598000B6B5B4B3B2B1B0AFAEADACABAAA9A8A82E
:10599000A7A6A5A4A3A3A2A1A09F9F9E9D9C9C9BFC
:1059A0009A999998979796959594939392919190A7
:1059B0008F8F8E8E8D8C8C8B8B8A89898888878738
:1059C0008685858484838382828181800000FF07AD
:1059D0000000F87F4FEA1153A3F58063D3F11E0353
:1059E000A8BFD3F1200C08DB4FF0004242EAC122ED
:1059F00052EA505232FA03F0704709420BD4102B8E
:105A0000C4BF0020704703F5787CBCF1FF3F05D090
:105A10004FF0FF3070474FF00000704770B500F056
:105A2000C3F800BF4992248000207047F0E7B0FA25
:105A300080F310FA03F10AD0C3F11D0303F580636C
:105A40004FEA41504FEA035202EBD12170474FF029
:105A500000007047DFF848C170B51CEA111E1EBF78
:105A60001CEA13159EEA0C0F95EA0C0F00F06F80EC
:105A700081EA030423EA4C134EEAD47E21EA4C1156
:105A800041F4801143F48013AE44A1FB024CA0FB0F
:105A90000365AEF17F7E361955EB0C05A1FB034C77
:105AA0004CF10003A0FB021C16EB0C06654153F100
:105AB0000003094218BF46F0010613F4007F0BD122
:105AC0004FEA03314FEA0530340341EA155140EA09
:105AD00016506FF003020AE04FEAC3214FEAC520D7
